:100000000C942A000C94F70E0C942A0F0C945D0F9C
:100010000C9447000C9447000C94B01D0C94EA1CFF
:100020000C944D1D0C947F1C0C94291A0C94D91916
:100030000C9447000C9447000C9447000C94470024
:100040000C944A070C9447000C9447000C9447000A
:100050000C94470011241FBECFE5D8E0DEBFCDBF12
:1000600011E0A0E6B0E0EEE4F5E502C005900D92E7
:10007000AA3CB107D9F712E0AAECB1E001C01D9289
:10008000A830B107E1F70E940F1E0C94A52A0C942A
:100090000000EF92FF920F931F937B018C0120E0F1
:1000A00030E040E05FE40E94F50388238CF0C80153
:1000B000B70120E030E040E05FE40E94C1010E940F
:1000C00055049B01AC01205030404040504806C0D0
:1000D000C801B7010E9455049B01AC01B901CA01D6
:1000E0001F910F91FF90EF900895A0E0B0E0EBE733
:1000F000F0E00C946E2ADC012B01FA019C91923005
:1001000008F439C1EB018881823008F433C194309E
:1001100069F4843009F02FC111969C91119789815F
:10012000981709F428C1ADE9B1E025C1843009F47C
:1001300021C18230A9F4923009F01DC19A01AD01AC
:1001400088E0EA010990AE01E90109929E0181501F
:10015000C1F7E201898111969C918923818308C1AD
:10016000923009F407C112962D903C901397EB0141
:100170008A819B811496AD90BD90CD90DC901797AD
:10018000EC80FD800E811F819101281B390BB90184
:1001900037FF04C066277727621B730B6032710537
:1001A0000CF061C0121613066CF537014801062EDB
:1001B00004C096948794779467940A94D2F721E0C8
:1001C00030E040E050E004C0220F331F441F551FB1
:1001D0006A95D2F721503040404050402E213F21B7
:1001E00040235123211531054105510521F021E01E
:1001F00030E040E050E079018A01E628F72808293C
:1002000019293CC0232BD1F1260E371E350146019A
:10021000062E04C096948794779467940A94D2F734
:1002200021E030E040E050E004C0220F331F441FC3
:10023000551F6A95D2F721503040404050402A2146
:100240003B214C215D21211531054105510521F04E
:1002500021E030E040E050E059016A01A628B728CB
:10026000C828D9280BC0821593052CF01C01AA249C
:10027000BB24650103C0EE24FF24870111969C91E5
:10028000D20111968C91981709F445C0992339F041
:10029000A80197012A193B094C095D0906C0A6016E
:1002A00095012E193F09400B510B57FD08C01182D3
:1002B0003382228224833583468357831DC081E0A5
:1002C00081833382228288279927DC01821B930B4A
:1002D000A40BB50B84839583A683B7830DC0220F2F
:1002E000331F441F551F24833583468357838281E0
:1002F000938101979383828324813581468157813D
:10030000DA01C9010197A109B1098F5F9F4FAF4F72
:10031000BF4328F30BC0918333822282EA0CFB1C7B
:100320000C1D1D1DE482F5820683178383E0808304
:10033000248135814681578157FF1AC0C901AA27F8
:1003400097FDA095BA2F81709070A070B0705695EF
:10035000479537952795822B932BA42BB52B848318
:100360009583A683B7838281938101969383828349
:10037000DF0101C0D201CD01CDB7DEB7E2E10C94BF
:100380008A2AA0E2B0E0E7ECF1E00C947A2A6983D3
:100390007A838B839C832D833E834F835887E9E048
:1003A000EE2EF12CEC0EFD1ECE010196B7010E943F
:1003B0007E058E010F5E1F4FCE010596B8010E948B
:1003C0007E058A8991E089278A8BC701B801AE0131
:1003D000475E5F4F0E9475000E94A904A096E6E068
:1003E0000C94962AA0E2B0E0E8EFF1E00C947A2AAF
:1003F00069837A838B839C832D833E834F835887C5
:10040000F9E0EF2EF12CEC0EFD1ECE010196B701A6
:100410000E947E058E010F5E1F4FCE010596B8012A
:100420000E947E05C701B801AE01475E5F4F0E9482
:1004300075000E94A904A096E6E00C94962AA0E21A
:10044000B0E0E5E2F2E00C946E2A69837A838B8354
:100450009C832D833E834F835887CE010196BE0136
:10046000675F7F4F0E947E05CE010596BE016F5EDD
:100470007F4F0E947E059985923088F0898982306D
:10048000C8F0943019F4823051F404C0843029F457
:10049000923081F48DE991E0C6C0923049F420E0B9
:1004A0009A858A89981321E02A87CE010996BBC0D4
:1004B000823049F420E09A858A89981321E02A8BBA
:1004C000CE014196B0C02D843E844F8458886D88FB
:1004D0007E888F88988CEE24FF248701AA24BB2471
:1004E000650140E050E060E070E0E0E0F0E0C10174
:1004F00081709070892BE9F0E60CF71C081D191D1E
:100500009A01AB012A0D3B1D4C1D5D1D80E090E062
:10051000A0E0B0E0E614F7040805190520F481E036
:1005200090E0A0E0B0E0BA01A901480F591F6A1F8E
:100530007B1FAA0CBB1CCC1CDD1C97FE08C081E0F5
:1005400090E0A0E0B0E0A82AB92ACA2ADB2A3196B6
:10055000E032F10549F0660C771C881C991C569412
:10056000479437942794C3CFFA85EA892B893C892D
:100570008B859C85280F391F2E5F3F4F17C0CA01FE
:1005800081709070892B61F016950795F794E79428
:1005900080E090E0A0E0B0E8E82AF92A0A2B1B2BC3
:1005A00076956795579547952F5F3F4F77FDE7CF36
:1005B0000CC0440F551F661F771F17FD4160EE0CDE
:1005C000FF1C001F111F21503040403090E05907A0
:1005D00090E0690790E4790760F32B8F3C8FDB0193
:1005E000CA018F779070A070B07080349105A1051A
:1005F000B10561F447FD0AC0E114F10401051105DC
:1006000029F0405C5F4F6F4F7F4F40781A8EFE1786
:1006100011F081E08A8F4D8F5E8F6F8F78A383E01A
:10062000898FCE0149960E94A904A096E2E10C941C
:100630008A2AA8E1B0E0EFE1F3E00C94762A69831E
:100640007A838B839C832D833E834F835887B9E0C5
:10065000EB2EF12CEC0EFD1ECE010196B7010E948F
:100660007E058E010F5E1F4FCE010596B8010E94D8
:100670007E052985223008F47EC03989323010F495
:10068000B8017CC08A859A8989278A87243011F02D
:10069000223031F4231709F06EC06DE971E06EC0AD
:1006A000343039F41D861E861F86188A1C861B86E8
:1006B00004C0323021F484E08987B7015FC02B8504
:1006C0003C858B899C89281B390B3C872B87ED84C3
:1006D000FE840F851889AD88BE88CF88D88CEA142F
:1006E000FB040C051D0540F4EE0CFF1C001F111F40
:1006F000215030403C872B8720E030E040E050E044
:1007000080E090E0A0E0B0E460E070E0EA14FB0478
:100710000C051D0540F0282B392B4A2B5B2BEA18C2
:10072000FB080C091D09B695A79597958795EE0CC2
:10073000FF1C001F111F6F5F7F4F6F31710531F775
:10074000DA01C9018F779070A070B0708034910584
:10075000A105B10561F427FD0AC0E114F10401050A
:10076000110529F0205C3F4F4F4F5F4F20782D87B8
:100770003E874F87588BBE01675F7F4FCB010E943A
:10078000A9046896EAE00C94922AA8E1B0E0EBECA8
:10079000F3E00C947A2A69837A838B839C832D837C
:1007A0003E834F83588789E0E82EF12CEC0EFD1E26
:1007B000CE010196B7010E947E058E010F5E1F4F8C
:1007C000CE010596B8010E947E058985823040F0F1
:1007D0008989823028F0C701B8010E94F60501C05E
:1007E0008FEF6896E6E00C94962AA8E1B0E0EBEF74
:1007F000F3E00C947A2A69837A838B839C832D831C
:100800003E834F83588789E0E82EF12CEC0EFD1EC5
:10081000CE010196B7010E947E058E010F5E1F4F2B
:10082000CE010596B8010E947E058985823040F090
:100830008989823028F0C701B8010E94F60501C0FD
:100840008FEF6896E6E00C94962AA8E1B0E0EBE220
:10085000F4E00C947A2A69837A838B839C832D83BA
:100860003E834F83588789E0E82EF12CEC0EFD1E65
:10087000CE010196B7010E947E058E010F5E1F4FCB
:10088000CE010596B8010E947E058985823040F030
:100890008989823028F0C701B8010E94F60501C09D
:1008A00081E06896E6E00C94962AACE0B0E0EBE5D7
:1008B000F4E00C947E2A69837A838B839C83CE0137
:1008C0000196BE016B5F7F4F0E947E058D81823055
:1008D00061F1823050F1843021F48E81882351F10E
:1008E0002EC02F81388537FD20C06E812F31310514
:1008F0001CF06623F9F023C08EE190E0821B930B7D
:1009000029853A854B855C8504C056954795379572
:1009100027958A95D2F76623B1F05095409530958A
:1009200021953F4F4F4F5F4F0EC020E030E040E039
:1009300050E009C02FEF3FEF4FEF5FE704C020E02A
:1009400030E040E050E8B901CA012C96E2E00C9496
:100950009A2ADF92EF92FF920F931F93FC01E4809B
:10096000F58006811781D1808081823048F480E053
:1009700090E0A0E1B0E0E82AF92A0A2B1B2BA5C0E1
:10098000843009F49FC0823021F4EE24FF248701D3
:1009900005C0E114F1040105110519F4E0E0F0E0EF
:1009A00096C0628173819FEF623879070CF05BC05B
:1009B00022E83FEF261B370B2A3131052CF020E0CF
:1009C00030E040E050E02AC0B801A701022E04C088
:1009D00076956795579547950A94D2F781E090E010
:1009E000A0E0B0E004C0880F991FAA1FBB1F2A9582
:1009F000D2F70197A109B1098E219F21A023B1232C
:100A00000097A105B10521F081E090E0A0E0B0E001
:100A10009A01AB01282B392B4A2B5B2BDA01C90138
:100A20008F779070A070B07080349105A105B105EA
:100A300039F427FF09C0205C3F4F4F4F5F4F04C080
:100A4000215C3F4F4F4F5F4FE0E0F0E02030A0E0EF
:100A50003A07A0E04A07A0E45A0710F0E1E0F0E00E
:100A600079018A0127C06038710564F5FB01E158FE
:100A7000FF4FD801C7018F779070A070B07080349D
:100A80009105A105B10539F4E7FE0DC080E490E0C1
:100A9000A0E0B0E004C08FE390E0A0E0B0E0E80E9A
:100AA000F91E0A1F1B1F17FF05C016950795F7941F
:100AB000E794319687E016950795F794E7948A9521
:100AC000D1F705C0EE24FF248701EFEFF0E06E2F91
:100AD000679566276795902F9F77D794DD24D794E5
:100AE0008E2F8695492F462B582F5D29B701CA01B5
:100AF0001F910F91FF90EF90DF900895FC01DB01B3
:100B0000408151812281622F6F7770E0221F22275E
:100B1000221F9381892F880F822B282F30E0991F65
:100B20009927991F11969C93119721153105A9F5C5
:100B3000411551056105710511F482E037C082E865
:100B40009FEF13969C938E9312979A01AB0167E0E7
:100B5000220F331F441F551F6A95D1F783E08C93F2
:100B60000DC0220F331F441F551F12968D919C916B
:100B70001397019713969C938E931297203080E0E1
:100B8000380780E0480780E4580758F314962D93FF
:100B90003D934D935C93179708952F3F310579F45A
:100BA000411551056105710519F484E08C93089590
:100BB00064FF03C081E08C9312C01C9210C02F57B9
:100BC000304013963C932E93129783E08C9387E0EA
:100BD000440F551F661F771F8A95D1F770641496CE
:100BE0004D935D936D937C93179708951F93DC014C
:100BF000FB019C91923008F447C08081823008F458
:100C000043C0943051F411961C91843099F5818140
:100C1000682F70E0611B71093FC0843021F0923071
:100C200031F48230B9F18181882389F12DC0119688
:100C30001C9111978230F1F081811817D9F4129626
:100C40002D913C911397828193818217930794F0A1
:100C500028173907BCF014968D919D910D90BC9189
:100C6000A02D2481358146815781281739074A07ED
:100C70005B0718F4112341F00AC082179307A407F9
:100C8000B50740F4112319F061E070E005C06FEF83
:100C90007FEF02C060E070E0CB011F910895DF9309
:100CA000CF93CDB7DEB7A7E2B0E0E7E2F0E0808116
:100CB0008F778C93A7E2B0E0E7E2F0E08081806478
:100CC0008C93A7E2B0E0E7E2F0E080818F7D8C9327
:100CD000A6E2B0E0E6E2F0E080818E7F8C93A6E2AF
:100CE000B0E0E6E2F0E0808182608C93A6E2B0E0C2
:100CF000E6E2F0E0808184608C93A6E2B0E0E6E278
:100D0000F0E0808180688C93CF91DF910895DF932C
:100D1000CF93CDB7DEB728970FB6F894DEBF0FBEDE
:100D2000CDBF8E8378876F8381E08D8319821A828D
:100D30001B821C828E81803208F05BC08F81988577
:100D4000009709F456C0A7E2B0E0E7E2F0E0808146
:100D5000807E8C93A7E2B0E0E7E2F0E090818E81A4
:100D6000892B8C93A6E2B0E0E6E2F0E0808180641B
:100D70008C930BC089819A81AB81BC810196A11DA6
:100D8000B11D89839A83AB83BC83E6E2F0E0808166
:100D900082958F70882F90E081709070009761F439
:100DA00089819A81AB81BC81803523EC920720E058
:100DB000A20720E0B207F0F2E6E2F0E0808182953F
:100DC0008F70882F90E081709070882381F0A6E268
:100DD000B0E0E6E2F0E080818F7E8C93E4E2F0E028
:100DE00080819181EF81F8859183808303C01D828A
:100DF00001C01D828D8128960FB6F894DEBF0FBE0C
:100E0000CDBFCF91DF910895DF93CF9300D000D075
:100E1000CDB7DEB78A837C836B8381E089838A8147
:100E2000803278F58B819C81009759F18091CC01BB
:100E3000882339F581E08093CC018B819C8190934C
:100E4000CB018093CA01A6E2B0E0E6E2F0E0808147
:100E500088608C93A7E2B0E0E7E2F0E08081807EDA
:100E60008C93A7E2B0E0E7E2F0E090818A81892BE1
:100E70008C93A6E2B0E0E6E2F0E0808180648C939F
:100E800001C0198289810F900F900F900F90CF9120
:100E9000DF9108951F920F920FB60F9211242F9396
:100EA0003F934F935F936F937F938F939F93AF93F2
:100EB000BF93EF93FF93DF93CF93CDB7DEB78091CE
:100EC000CA019091CB01009799F01092CC01A6E253
:100ED000B0E0E6E2F0E08081877F8C932091CA0148
:100EE0003091CB01E4E2F0E080819181F901099534
:100EF000CF91DF91FF91EF91BF91AF919F918F9132
:100F00007F916F915F914F913F912F910F900FBE05
:100F10000F901F901895DF93CF9300D000D0CDB7DE
:100F2000DEB78A8381E089838A81883008F0EBC04C
:100F30008A81282F30E03C832B838B819C818330F6
:100F4000910509F470C02B813C812430310584F473
:100F50008B819C8181309105D1F12B813C812230A4
:100F600031050CF04AC08B819C810097D1F0C9C03B
:100F70002B813C812530310509F481C08B819C8116
:100F8000853091050CF465C02B813C8126303105FC
:100F900009F48BC08B819C818730910509F49BC03B
:100FA000B0C0A0E5B0E0E0E5F0E080818F7D8C93FB
:100FB000A0E5B0E0E0E5F0E080818F7B8C93A0E5D8
:100FC000B0E0E0E5F0E080818F778C939DC0A0E5F4
:100FD000B0E0E0E5F0E0808180628C93A0E5B0E0D5
:100FE000E0E5F0E080818F7B8C93A0E5B0E0E0E568
:100FF000F0E080818F778C9387C0A0E5B0E0E0E5DA
:10100000F0E080818F7D8C93A0E5B0E0E0E5F0E03A
:10101000808180648C93A0E5B0E0E0E5F0E0808121
:101020008F778C9371C0A0E5B0E0E0E5F0E08081BF
:1010300080628C93A0E5B0E0E0E5F0E08081806420
:101040008C93A0E5B0E0E0E5F0E080818F778C93B1
:101050005BC0A0E5B0E0E0E5F0E080818F7D8C939F
:10106000A0E5B0E0E0E5F0E080818F7B8C93A0E527
:10107000B0E0E0E5F0E0808180688C9345C0A0E5B9
:10108000B0E0E0E5F0E0808180628C93A0E5B0E024
:10109000E0E5F0E080818F7B8C93A0E5B0E0E0E5B7
:1010A000F0E0808180688C932FC0A0E5B0E0E0E59F
:1010B000F0E080818F7D8C93A0E5B0E0E0E5F0E08A
:1010C000808180648C93A0E5B0E0E0E5F0E0808171
:1010D00080688C9319C0A0E5B0E0E0E5F0E0808185
:1010E00080628C93A0E5B0E0E0E5F0E08081806470
:1010F0008C93A0E5B0E0E0E5F0E0808180688C931F
:1011000003C0198201C01982A6E2B0E0E6E2F0E075
:10111000808180628C9389810F900F900F900F9047
:10112000CF91DF910895DF93CF93CDB7DEB7EAE398
:10113000F0E080EF8083E7E3F0E088E08083E4E3A1
:10114000F0E08FEF8083E1E3F0E08BEF8083EBE36F
:10115000F0E01082E8E3F0E088EF8083E5E3F0E080
:101160001082E2E3F0E08FE18083CF91DF91089578
:10117000DF93CF9300D000D0CDB7DEB78A836B83E7
:101180004C8381E089838A81843008F0D6C08B81CA
:10119000883008F0D2C08C81813021F08C81882386
:1011A00009F0CBC08A81882381F58C818130A1F43C
:1011B000AAE3B0E0EAE3F0E08081482F8B81282F9A
:1011C00030E081E090E0022E02C0880F991F0A945F
:1011D000E2F7842B8C93B2C08C81882309F0AEC0D7
:1011E000AAE3B0E0EAE3F0E08081482F8B81282F6A
:1011F00030E081E090E0022E02C0880F991F0A942F
:10120000E2F7809584238C9399C08A81813081F59F
:101210008C818130A1F4A7E3B0E0E7E3F0E08081C6
:10122000482F8B81282F30E081E090E0022E02C011
:10123000880F991F0A94E2F7842B8C937FC08C81CE
:10124000882309F07BC0A7E3B0E0E7E3F0E080810A
:10125000482F8B81282F30E081E090E0022E02C0E1
:10126000880F991F0A94E2F7809584238C9366C0B7
:101270008A81823081F58C818130A1F4A4E3B0E0D1
:10128000E4E3F0E08081482F8B81282F30E081E07B
:1012900090E0022E02C0880F991F0A94E2F7842B77
:1012A0008C934CC08C81882309F048C0A4E3B0E043
:1012B000E4E3F0E08081482F8B81282F30E081E04B
:1012C00090E0022E02C0880F991F0A94E2F78095E1
:1012D00084238C9333C08A81833081F58C81813063
:1012E000A1F4A1E3B0E0E1E3F0E08081482F8B813D
:1012F000282F30E081E090E0022E02C0880F991F75
:101300000A94E2F7842B8C9319C08C818823B1F462
:10131000A1E3B0E0E1E3F0E08081482F8B81282F4A
:1013200030E081E090E0022E02C0880F991F0A94FD
:10133000E2F7809584238C9301C0198289810F90F4
:101340000F900F900F90CF91DF910895DF93CF937F
:10135000CDB7DEB72A970FB6F894DEBF0FBECDBF6C
:101360008A836B834C8381E089838B81883008F08A
:10137000F9C08C81282F30E03A87298789859A85A2
:10138000009709F477C029853A852130310509F0A5
:10139000E7C08A81282F30E038872F838F81988596
:1013A0008130910549F12F813885223031052CF4A7
:1013B0008F819885009761F05BC02F81388522303E
:1013C000310571F18F81988583309105E9F150C025
:1013D000ABE3B0E0EBE3F0E08081482F8B81282F76
:1013E00030E081E090E0022E02C0880F991F0A943D
:1013F000E2F7842B8C93B7C0A8E3B0E0E8E3F0E019
:101400008081482F8B81282F30E081E090E0022EF0
:1014100002C0880F991F0A94E2F7842B8C93A3C013
:10142000A5E3B0E0E5E3F0E08081482F8B81282F31
:1014300030E081E090E0022E02C0880F991F0A94EC
:10144000E2F7842B8C938FC0A2E3B0E0E2E3F0E0FC
:101450008081482F8B81282F30E081E090E0022EA0
:1014600002C0880F991F0A94E2F7842B8C937BC0EB
:10147000198279C08A81282F30E03E832D838D81A7
:101480009E818130910559F12D813E8122303105B7
:101490002CF48D819E81009769F060C02D813E8182
:1014A0002230310589F18D819E818330910509F4C7
:1014B00040C054C0ABE3B0E0EBE3F0E08081482FE4
:1014C0008B81282F30E081E090E0022E02C0880F4F
:1014D000991F0A94E2F7809584238C9344C0A8E373
:1014E000B0E0E8E3F0E08081482F8B81282F30E0E6
:1014F00081E090E0022E02C0880F991F0A94E2F763
:10150000809584238C932FC0A5E3B0E0E5E3F0E061
:101510008081482F8B81282F30E081E090E0022EDF
:1015200002C0880F991F0A94E2F7809584238C9358
:101530001AC0A2E3B0E0E2E3F0E08081482F8B81A3
:10154000282F30E081E090E0022E02C0880F991F22
:101550000A94E2F7809584238C9305C0198203C016
:10156000198201C0198289812A960FB6F894DEBFCC
:101570000FBECDBFCF91DF910895DF93CF93CDB74D
:10158000DEB728970FB6F894DEBF0FBECDBF8B83B2
:101590006C835E834D8381E08A838C81883008F080
:1015A0009DC08D819E81009709F498C08B81282F62
:1015B00030E038872F834F81588541305105A9F19C
:1015C0008F8198858230910534F42F8138852115DB
:1015D000310571F081C04F8158854230510509F4C1
:1015E00041C08F8198858330910509F458C074C03B
:1015F000E9E3F0E08081282F30E08C81882F90E0B3
:10160000A90102C0559547958A95E2F7CA018170F4
:1016100089838981813029F4ED81FE8181E0808395
:101620005EC0ED81FE8110825AC0E6E3F0E0808169
:10163000282F30E08C81882F90E0A90102C05595B9
:1016400047958A95E2F7CA01817089838981813043
:1016500029F4ED81FE8181E0808341C0ED81FE812E
:1016600010823DC0E3E3F0E08081282F30E08C81E0
:10167000882F90E0A90102C0559547958A95E2F719
:10168000CA01817089838981813029F4ED81FE81CD
:1016900081E0808324C0ED81FE81108220C0E0E3E0
:1016A000F0E08081282F30E08C81882F90E0A90124
:1016B00002C0559547958A95E2F7CA0181708983E2
:1016C0008981813029F4ED81FE8181E0808307C02A
:1016D000ED81FE81108203C01A8201C01A828A81C4
:1016E00028960FB6F894DEBF0FBECDBFCF91DF9125
:1016F0000895DF93CF93CDB7DEB729970FB6F8944F
:10170000DEBF0FBECDBF8A836B8381E089838B816F
:10171000282F30E039872887888599850097D9F167
:10172000288539852130310509F066C08A81282F46
:1017300030E03F832E838E819F8181309105D1F0EF
:101740002E813F81223031052CF48E819F810097BC
:1017500061F01FC02E813F812230310581F08E81E2
:101760009F818330910581F014C0EAE3F0E08FEFB0
:10177000808343C0E7E3F0E08FEF80833EC0E4E383
:10178000F0E08FEF808339C0E1E3F0E08FEF8083FA
:1017900034C0198232C08A81282F30E03D832C83E7
:1017A0008C819D8181309105C9F02C813D81223051
:1017B00031052CF48C819D81009761F01BC02C8138
:1017C0003D812230310571F08C819D8183309105FE
:1017D00069F010C0EAE3F0E010820FC0E7E3F0E048
:1017E00010820BC0E4E3F0E0108207C0E1E3F0E018
:1017F000108203C0198201C01982898129960FB60F
:10180000F894DEBF0FBECDBFCF91DF910895DF9377
:10181000CF9300D000D00F92CDB7DEB78A836B8311
:1018200081E089838A81282F30E03D832C838C815D
:101830009D8181309105D1F02C813D81223031058F
:101840002CF48C819D81009761F01FC02C813D811B
:101850002230310581F08C819D818330910581F0AA
:1018600014C0EBE3F0E08B81808310C0E8E3F0E08C
:101870008B8180830BC0E5E3F0E08B81808306C021
:10188000E2E3F0E08B81808301C0198289810F90AF
:101890000F900F900F900F90CF91DF910895DF93ED
:1018A000CF9300D000D000D0CDB7DEB78A837C8341
:1018B0006B8381E089838B819C810097E9F18A8128
:1018C000282F30E03E832D838D819E8181309105CC
:1018D000E1F02D813E81223031052CF48D819E81F5
:1018E000009761F027C02D813E8122303105A1F0A3
:1018F0008D819E8183309105B1F01CC0E9E3F0E059
:101900008081EB81FC81808318C0E6E3F0E0808178
:10191000EB81FC81808311C0E3E3F0E08081EB8107
:10192000FC8180830AC0E0E3F0E08081EB81FC81F0
:10193000808303C0198201C01982898126960FB65F
:10194000F894DEBF0FBECDBFCF91DF910895DF9336
:10195000CF9300D000D00F92CDB7DEB78A836B83D0
:1019600081E089838B81883008F072C08B81883058
:1019700008F06EC08A81282F30E03D832C838C8153
:101980009D818130910549F12C813D8122303105C5
:101990002CF48C819D81009761F05AC02C813D818F
:1019A0002230310571F18C819D8183309105E9F1FF
:1019B0004FC0ABE3B0E0EBE3F0E08081482F8B81D8
:1019C000282F30E081E090E0022E02C0880F991F9E
:1019D0000A94E2F784278C933BC0A8E3B0E0E8E3E5
:1019E000F0E08081482F8B81282F30E081E090E06B
:1019F000022E02C0880F991F0A94E2F784278C9365
:101A000027C0A5E3B0E0E5E3F0E08081482F8B81BB
:101A1000282F30E081E090E0022E02C0880F991F4D
:101A20000A94E2F784278C9313C0A2E3B0E0E2E3C8
:101A3000F0E08081482F8B81282F30E081E090E01A
:101A4000022E02C0880F991F0A94E2F784278C9314
:101A500089810F900F900F900F900F90CF91DF9191
:101A60000895DF93CF9300D000D0CDB7DEB78A833F
:101A70007C836B8381E089838A81833088F48B81C6
:101A80009C81009769F08A81882F90E0880F991FC8
:101A9000FC01E353FE4F8B819C819183808301C0C5
:101AA000198289810F900F900F900F90CF91DF9145
:101AB0000895DF93CF93CDB7DEB72D970FB6F89487
:101AC000DEBF0FBECDBF8A836B8381E089838B81AC
:101AD000282F30E03D872C878C859D8581309105AE
:101AE00009F45AC02C853D85223031052CF48C85B3
:101AF0009D85009771F033C12C853D8522303105DD
:101B000009F48DC08C859D858330910509F4D7C07B
:101B100026C18A81282F30E03B872A878A859B85CA
:101B200081309105F9F02A853B852230310581F11C
:101B30008A859B85009771F5A5E5B0E0E5E5F0E0C5
:101B400080818E7F8C93A5E5B0E0E5E5F0E08081B3
:101B50008D7F8C93ABE5B0E0EBE5F0E080818064B5
:101B60008C93FEC0A5E5B0E0E5E5F0E080818B7FD9
:101B70008C93A5E5B0E0E5E5F0E08081877F8C936C
:101B8000ABE5B0E0EBE5F0E0808180688C93E8C0E5
:101B90001982E6C01982E4C08A81282F30E0398793
:101BA00028878885998581309105F9F028853985C0
:101BB0002230310581F188859985009771F5A5E579
:101BC000B0E0E5E5F0E0808181608C93A5E5B0E0D0
:101BD000E5E5F0E080818D7F8C93ABE5B0E0EBE54F
:101BE000F0E0808180648C93BBC0A5E5B0E0E5E5C2
:101BF000F0E0808184608C93A5E5B0E0E5E5F0E05D
:101C00008081877F8C93ABE5B0E0EBE5F0E08081ED
:101C100080688C93A5C01982A3C01982A1C08A8153
:101C2000282F30E03F832E838E819F818130910564
:101C3000F9F02E813F812230310581F18E819F8123
:101C40000097D9F5A5E5B0E0E5E5F0E080818E7F6D
:101C50008C93A5E5B0E0E5E5F0E0808182608C93AF
:101C6000ABE5B0E0EBE5F0E0808180648C9378C078
:101C7000A5E5B0E0E5E5F0E080818B7F8C93A5E5FC
:101C8000B0E0E5E5F0E0808188608C93ABE5B0E002
:101C9000EBE5F0E0808180688C9362C0A4E5B0E061
:101CA000E4E5F0E080818F7B8C93ABE5B0E0EBE581
:101CB000F0E0808180628C9353C0198251C08A8188
:101CC000282F30E03D832C838C819D8181309105CC
:101CD000F9F02C813D812230310581F18C819D818B
:101CE0000097D9F5A5E5B0E0E5E5F0E080818160F9
:101CF0008C93A5E5B0E0E5E5F0E0808182608C930F
:101D0000ABE5B0E0EBE5F0E0808180648C9328C027
:101D1000A5E5B0E0E5E5F0E0808184608C93A5E581
:101D2000B0E0E5E5F0E0808188608C93ABE5B0E061
:101D3000EBE5F0E0808180688C9312C0A4E5B0E010
:101D4000E4E5F0E0808180648C93ABE5B0E0EBE506
:101D5000F0E0808180628C9303C0198201C01982F7
:101D600089812D960FB6F894DEBF0FBECDBFCF91FF
:101D7000DF910895DF93CF9300D000D0CDB7DEB7C9
:101D80008A8381E089838A81282F30E03C832B83FA
:101D90008B819C818130910589F02B813C8122309F
:101DA0003105A1F08B819C810097C1F4ABE5B0E0D7
:101DB000EBE5F0E080818F7B8C9311C0ABE5B0E068
:101DC000EBE5F0E080818F778C9309C0ABE5B0E064
:101DD000EBE5F0E080818F7D8C9301C019828981D1
:101DE0000F900F900F900F90CF91DF9108951F9259
:101DF0000F920FB60F9211242F933F934F935F933F
:101E00006F937F938F939F93AF93BF93EF93FF93C2
:101E1000DF93CF93CDB7DEB78091CD019091CE0106
:101E2000009729F0E091CD01F091CE010995CF9175
:101E3000DF91FF91EF91BF91AF919F918F917F9132
:101E40006F915F914F913F912F910F900FBE0F9027
:101E50001F9018951F920F920FB60F9211242F9377
:101E60003F934F935F936F937F938F939F93AF9322
:101E7000BF93EF93FF93DF93CF93CDB7DEB78091FE
:101E8000CF019091D001009729F0E091CF01F0911E
:101E9000D0010995CF91DF91FF91EF91BF91AF9163
:101EA0009F918F917F916F915F914F913F912F9172
:101EB0000F900FBE0F901F9018951F920F920FB6A4
:101EC0000F9211242F933F934F935F936F937F93C0
:101ED0008F939F93AF93BF93EF93FF93DF93CF9332
:101EE000CDB7DEB78091D1019091D201009729F052
:101EF000E091D101F091D2010995CF91DF91FF914D
:101F0000EF91BF91AF919F918F917F916F915F9171
:101F10004F913F912F910F900FBE0F901F901895EA
:101F2000DF93CF93CDB7DEB7AFE5B0E0EFE5F0E0FC
:101F3000808180688C93CF91DF910895DF93CF9358
:101F4000CDB7DEB7AFE5B0E0EFE5F0E080818F77A9
:101F50008C93CF91DF910895DF93CF93CDB7DEB708
:101F600065970FB6F894DEBF0FBECDBF9D8B8C8BEF
:101F700081E08A8B1F868C899D89009709F41BC19B
:101F8000198A14C18989882F90E0FC01E754FE4F1B
:101F900020818989882F90E0FC01E354FE4F9081D5
:101FA000822F692F40E00E94A609188AE2C0888922
:101FB000882F90E0FC01EF53FE4F40818889882FE5
:101FC00090E0FC01EB53FE4F90819E012D5E3F4F50
:101FD000842F692FA9010E94BD0A8B89882309F0EB
:101FE000C1C080E090E0A0EAB1E48B879C87AD8718
:101FF000BE876B857C858D859E8520E030E04AEF2D
:1020000054E40E941F02DC01CB018F839887A987CB
:10201000BA876F81788589859A8520E030E040E82D
:102020005FE30E94250488232CF481E090E09E83E6
:102030008D833FC06F81788589859A8520E03FEF49
:102040004FE757E40E94C50318164CF56B857C8555
:102050008D859E8520E030E040E251E40E941F0221
:10206000DC01CB01BC01CD010E944900DC01CB01A8
:102070009E838D830FC088EC90E09C838B838B8143
:102080009C810197F1F79C838B838D819E810197C1
:102090009E838D838D819E81009769F714C06F8127
:1020A000788589859A850E944900DC01CB019E8351
:1020B0008D838D819E819A83898389819A810197FD
:1020C000F1F79A8389838889882F90E0FC01EF5388
:1020D000FE4F40818889882F90E0FC01EB53FE4F32
:1020E00090819E012D5E3F4F842F692FA9010E9490
:1020F000BD0A8B89882389F516C08889882F90E0CE
:10210000FC01EF53FE4F40818889882F90E0FC014D
:10211000EB53FE4F90819E012D5E3F4F842F692F20
:10212000A9010E94BD0A8B89882339F38989482F28
:1021300050E08889282F30E0CA01880F991F880F46
:10214000991F820F931FFC01E755FE4F8081EC8998
:10215000FD89808381E08F8710C0EC89FD898FEF36
:10216000808304C0EC89FD898FEF808388898F5F2D
:10217000888B8889843008F41ACF8989882F90E069
:10218000FC01E754FE4F20818989882F90E0FC01F3
:10219000E354FE4F9081822F692F41E00E94A609EF
:1021A0008F85813049F089898F5F898B8989843057
:1021B00008F4E8CE01C01A8A8A8965960FB6F894A9
:1021C000DEBF0FBECDBFCF91DF9108950F931F9358
:1021D000DF93CF93CDB7DEB7C655D0400FB6F89496
:1021E000DEBF0FBECDBFFE01ED5AFF4F80E090E095
:1021F000ACE0B2E480839183A283B3838E01015B60
:102200001F4FFE01ED5AFF4F6081718182819381E2
:1022100020E030E04AEF54E40E941F02DC01CB01D1
:10222000F80180839183A283B383FE01E15BFF4FBA
:10223000608171818281938120E030E040E85FE33A
:102240000E942504882344F4FE01E35BFF4F81E0F4
:1022500090E09183808364C0FE01E15BFF4F608169
:1022600071818281938120E03FEF4FE757E40E9424
:10227000C50318160CF043C0FE01ED5AFF4F6081F4
:1022800071818281938120E030E040E251E40E943C
:102290001F02DC01CB018E01035B1F4FBC01CD018E
:1022A0000E944900DC01CB01F801918380831FC0AB
:1022B000FE01E55BFF4F88EC90E091838083FE0197
:1022C000E55BFF4F808191810197F1F7FE01E55BAE
:1022D000FF4F91838083DE01A35BBF4FFE01E35B71
:1022E000FF4F80819181019711969C938E93FE01FF
:1022F000E35BFF4F808191810097D1F627C08E016B
:10230000035B1F4FFE01E15BFF4F608171818281A2
:1023100093810E944900DC01CB01F8019183808305
:10232000DE01A75BBF4FFE01E35BFF4F8081918120
:102330008D939C93FE01E75BFF4F80819181019714
:10234000F1F7FE01E75BFF4F9183808388E30E94F2
:102350001714FE01EB5BFF4F80E090E0A0E2B2E4D7
:1023600080839183A283B3838E010F5B1F4FFE0195
:10237000EB5BFF4F60817181828193812BEA3AEAA6
:102380004AE250E40E941F02DC01CB01F801808385
:102390009183A283B383FE01EF5BFF4F6081718164
:1023A0008281938120E030E040E85FE30E942504D1
:1023B000882334F481E0FE01E05CFF4F80839DC000
:1023C000FE01EF5BFF4F608171818281938120E08C
:1023D00030E04FE753E40E94C50318160CF07EC0AE
:1023E000FE01EB5BFF4F608171818281938120E070
:1023F00030E04AE754E40E941903DC01CB018CAFC2
:102400009DAFAEAFBFAF6CAD7DAD8EAD9FAD20E0EB
:1024100030E04AEF54E40E941F02DC01CB0188AF98
:1024200099AFAAAFBBAF68AD79AD8AAD9BAD20E0E7
:1024300030E040E85FE30E94250488232CF481E02B
:1024400090E09FAB8EAB3FC068AD79AD8AAD9BADE0
:1024500020E03FEF4FE757E40E94C50318164CF504
:102460006CAD7DAD8EAD9FAD20E030E040E251E43B
:102470000E941F02DC01CB01BC01CD010E9449007A
:10248000DC01CB019FAB8EAB0FC088EC90E09DAB25
:102490008CAB8CA99DA90197F1F79DAB8CAB8EA954
:1024A0009FA901979FAB8EAB8EA99FA9009769F753
:1024B0002DC068AD79AD8AAD9BAD0E944900DC01AD
:1024C000CB019FAB8EAB8EA99FA99BAB8AAB8AA990
:1024D0009BA90197F1F79BAB8AAB18C0FE01EF5B9C
:1024E000FF4F60817181828193810E944900DC01EC
:1024F000CB01FE01E05CFF4F8083FE01E05CFF4FFB
:10250000808189AB89A98A95F1F789AB8FE00E9418
:10251000171480E090E0A0E2B2E48DA79EA7AFA7D9
:10252000B8AB6DA57EA58FA598A92BEA3AEA4AE239
:1025300050E40E941F02DC01CB0189A79AA7ABA738
:10254000BCA769A57AA58BA59CA520E030E040E852
:102550005FE30E94250488231CF481E088A791C0D2
:1025600069A57AA58BA59CA520E030E04FE753E450
:102570000E94C50318160CF07BC06DA57EA58FA523
:1025800098A920E030E04AE754E40E941903DC01F6
:10259000CB018CA39DA3AEA3BFA36CA17DA18EA1F3
:1025A0009FA120E030E04AEF54E40E941F02DC01CA
:1025B000CB0188A399A3AAA3BBA368A179A18AA1EF
:1025C0009BA120E030E040E85FE30E9425048823DF
:1025D0002CF481E090E09F8F8E8F3FC068A179A19D
:1025E0008AA19BA120E03FEF4FE757E40E94C5037B
:1025F00018164CF56CA17DA18EA19FA120E030E0C2
:1026000040E251E40E941F02DC01CB01BC01CD017C
:102610000E944900DC01CB019F8F8E8F0FC088EC98
:1026200090E09D8F8C8F8C8D9D8D0197F1F79D8F04
:102630008C8F8E8D9F8D01979F8F8E8F8E8D9F8D0E
:10264000009769F724C068A179A18AA19BA10E9483
:102650004900DC01CB019F8F8E8F8E8D9F8D9B8FCC
:102660008A8F8A8D9B8D0197F1F79B8F8A8F0FC080
:1026700069A57AA58BA59CA50E944900DC01CB0128
:1026800088A788A5898F898D8A95F1F7898F81E040
:102690000E94171480E090EEAFEBB4E48D8B9E8B1C
:1026A000AF8BB88F6D897E898F89988D2BEA3AEA36
:1026B0004AE250E40E941F02DC01CB01898B9A8B15
:1026C000AB8BBC8B69897A898B899C8920E030E04F
:1026D00040E85FE30E94250488231CF481E0888B96
:1026E00091C069897A898B899C8920E030E04FE725
:1026F00053E40E94C50318160CF07BC06D897E89D7
:102700008F89988D20E030E04AE754E40E94190355
:10271000DC01CB018C879D87AE87BF876C857D856B
:102720008E859F8520E030E04AEF54E40E941F022E
:10273000DC01CB0188879987AA87BB876885798563
:102740008A859B8520E030E040E85FE30E94250415
:1027500088232CF481E090E09F838E833FC06885BE
:1027600079858A859B8520E03FEF4FE757E40E94FB
:10277000C50318164CF56C857D858E859F8520E0F8
:1027800030E040E251E40E941F02DC01CB01BC01B9
:10279000CD010E944900DC01CB019F838E830FC0D5
:1027A00088EC90E09D838C838C819D810197F1F76B
:1027B0009D838C838E819F8101979F838E838E81E1
:1027C0009F81009769F724C0688579858A859B85F4
:1027D0000E944900DC01CB019F838E838E819F8103
:1027E0009B838A838A819B810197F1F79B838A83EC
:1027F0000FC069897A898B899C890E944900DC0114
:10280000CB01888B8889898389818A95F1F78983AF
:1028100086E00E941714CA5ADF4F0FB6F894DEBF45
:102820000FBECDBFCF91DF911F910F910895DF9320
:10283000CF93CDB7DEB769970FB6F894DEBF0FBE62
:10284000CDBF898F83E067E040E00E94A60983E066
:1028500066E040E00E94A60982E0698D0E94070CB4
:1028600083E065E041E00E94A60980E090E0A0E8F6
:10287000BFE38D8B9E8BAF8BB88F6D897E898F89DF
:10288000988D2BEA3AEA4AE250E40E941F02DC01EA
:10289000CB01898B9A8BAB8BBC8B69897A898B89AD
:1028A0009C8920E030E040E85FE30E942504882313
:1028B0001CF481E0888B91C069897A898B899C8915
:1028C00020E030E04FE753E40E94C50318160CF0F7
:1028D0007BC06D897E898F89988D20E030E04AE742
:1028E00054E40E941903DC01CB018C879D87AE87DD
:1028F000BF876C857D858E859F8520E030E04AEF1F
:1029000054E40E941F02DC01CB0188879987AA87C3
:10291000BB87688579858A859B8520E030E040E823
:102920005FE30E94250488232CF481E090E09F83DC
:102930008E833FC0688579858A859B8520E03FEF3F
:102940004FE757E40E94C50318164CF56C857D854A
:102950008E859F8520E030E040E251E40E941F0216
:10296000DC01CB01BC01CD010E944900DC01CB019F
:102970009F838E830FC088EC90E09D838C838C8135
:102980009D810197F1F79D838C838E819F810197B3
:102990009F838E838E819F81009769F724C068850D
:1029A00079858A859B850E944900DC01CB019F8344
:1029B0008E838E819F819B838A838A819B810197ED
:1029C000F1F79B838A830FC069897A898B899C89F7
:1029D0000E944900DC01CB01888B88898983898129
:1029E0008A95F1F7898383E065E040E00E94A609BB
:1029F00069960FB6F894DEBF0FBECDBFCF91DF91C1
:102A00000895DF93CF93CDB7DEB769970FB6F894EB
:102A1000DEBF0FBECDBF898F83E067E041E00E943B
:102A2000A60983E066E040E00E94A60982E0698D85
:102A30000E94070C83E065E041E00E94A60980E067
:102A400090E0A0E8BFE38D8B9E8BAF8BB88F6D8934
:102A50007E898F89988D2BEA3AEA4AE250E40E94F7
:102A60001F02DC01CB01898B9A8BAB8BBC8B6989F4
:102A70007A898B899C8920E030E040E85FE30E94FE
:102A8000250488231CF481E0888B91C069897A89A8
:102A90008B899C8920E030E04FE753E40E94C50316
:102AA00018160CF07BC06D897E898F89988D20E087
:102AB00030E04AE754E40E941903DC01CB018C8723
:102AC0009D87AE87BF876C857D858E859F8520E03D
:102AD00030E04AEF54E40E941F02DC01CB018887FA
:102AE0009987AA87BB87688579858A859B8520E039
:102AF00030E040E85FE30E94250488232CF481E065
:102B000090E09F838E833FC0688579858A859B8509
:102B100020E03FEF4FE757E40E94C50318164CF53D
:102B20006C857D858E859F8520E030E040E251E414
:102B30000E941F02DC01CB01BC01CD010E944900B3
:102B4000DC01CB019F838E830FC088EC90E09D83D6
:102B50008C838C819D810197F1F79D838C838E817D
:102B60009F8101979F838E838E819F81009769F754
:102B700024C0688579858A859B850E944900DC018F
:102B8000CB019F838E838E819F819B838A838A81E1
:102B90009B810197F1F79B838A830FC069897A89AA
:102BA0008B899C890E944900DC01CB01888B888934
:102BB000898389818A95F1F7898383E065E040E024
:102BC0000E94A60969960FB6F894DEBF0FBECDBF6E
:102BD000CF91DF910895DF93CF9300D00F92CDB7BF
:102BE000DEB79B838A8319820EC08981282F30E04B
:102BF0008A819B81FC01E20FF31F80810E940115F5
:102C000089818F5F89838981282F30E08A819B8128
:102C1000FC01E20FF31F8081882339F70F900F909A
:102C20000F90CF91DF910895EF92FF920F931F9332
:102C3000DF93CF93CDB7DEB7E9970FB6F894DEBF39
:102C40000FBECDBF6EAB7FAB88AF99AF8AE090E08F
:102C5000A0E0B0E08A879B87AC87BD8781E089834D
:102C60008EA99FA9A8ADB9AD0097A105B10509F03E
:102C700073C080E30E9401156FC08EA99FA9A8AD03
:102C8000B9AD2A853B854C855D85BC01CD010E948F
:102C90004C2ADC01CB018E839F83A887B9878A8564
:102CA0009B85AC85BD852AE030E040E050E0BC016A
:102CB000CD010E944C2ADA01C9019C01AD018E812F
:102CC0009F81A885B985BC01CD010E944C2ADA01FB
:102CD000C9018A839B83AC83BD838981882F90E05F
:102CE0009C01220F331F220F331FCE010196820F4A
:102CF000931FFC013D968A819B81AC81BD818083BD
:102D00009183A283B38389818F5F89832EA93FA991
:102D100048AD59AD8E819F81A885B98579018A0119
:102D2000E81AF90A0A0B1B0BD801C7018EAB9FAB3F
:102D3000A8AFB9AF8A859B85AC85BD852AE030E018
:102D400040E050E0BC01CD010E94192ADC01CB011A
:102D50008A879B87AC87BD878EA99FA9A8ADB9AD8F
:102D60000097A105B10509F088CF89818150898339
:102D700018C08981882F90E09C01220F331F220FF9
:102D8000331FCE010196820F931FFC013D96808177
:102D90009181A281B381805D0E940115898181505A
:102DA00089838981882329F7E9960FB6F894DEBFD5
:102DB0000FBECDBFCF91DF911F910F91FF90EF908C
:102DC0000895DF93CF9300D000D00F92CDB7DEB738
:102DD0008A836B8381E089838B818832E0F48A81E6
:102DE000282F30E03D832C838C819D81813091059B
:102DF00031F02C813D812230310531F00AC08B81C8
:102E000080580E94171408C08B8180540E941714A8
:102E100003C0198201C0198289810F900F900F9011
:102E20000F900F90CF91DF910895DF93CF93CDB79F
:102E3000DEB72E970FB6F894DEBF0FBECDBF81E090
:102E40000E94171480E090E0A0E0B0E48B879C879C
:102E5000AD87BE876B857C858D859E8520E030E0C3
:102E60004AEF54E40E941F02DC01CB018F83988754
:102E7000A987BA876F81788589859A8520E030E0B7
:102E800040E85FE30E94250488232CF481E090E071
:102E90009E838D833FC06F81788589859A8520E0E8
:102EA0003FEF4FE757E40E94C50318164CF56B85BA
:102EB0007C858D859E8520E030E040E251E40E94D3
:102EC0001F02DC01CB01BC01CD010E944900DC01E5
:102ED000CB019E838D830FC088EC90E09C838B8315
:102EE0008B819C810197F1F79C838B838D819E81DF
:102EF00001979E838D838D819E81009769F714C011
:102F00006F81788589859A850E944900DC01CB0113
:102F10009E838D838D819E819A83898389819A8105
:102F20000197F1F79A8389832E960FB6F894DEBF46
:102F30000FBECDBFCF91DF910895DF93CF93CDB773
:102F4000DEB72E970FB6F894DEBF0FBECDBF8A87CF
:102F50007C876B8781E089878A85883008F0F1C09B
:102F60008A85282F30E03E872D878D859E8583308A
:102F7000910509F473C02D853E852430310584F414
:102F80008D859E8581309105D9F12D853E85223034
:102F900031050CF04CC08D859E850097D1F0D2C0D4
:102FA0002D853E852530310509F486C08D859E85A9
:102FB000853091050CF469C02D853E85263031059C
:102FC00009F491C08D859E858730910509F4A2C0D2
:102FD000B9C080E40E94171418860EC08885282F77
:102FE00030E08B859C85FC01E20FF31F80810E94FD
:102FF000011588858F5F88878885883078F3A2C01F
:1030000088E40E9417141F820EC08F81282F30E0A1
:103010008B859C85FC01E20FF31F80810E940115C6
:103020008F818F5F8F838F81883078F38BC080E5AD
:103030000E9417141E820EC08E81282F30E08B85CF
:103040009C85FC01E20FF31F80810E9401158E8197
:103050008F5F8E838E81883078F374C088E50E94FC
:1030600017141D820EC08D81282F30E08B859C8522
:10307000FC01E20FF31F80810E9401158D818F5F9B
:103080008D838D81883078F35DC080E60E941714AF
:103090001C820EC08C81282F30E08B859C85FC0122
:1030A000E20FF31F80810E9401158C818F5F8C835A
:1030B0008C81883078F346C088E60E9417141B8202
:1030C0000EC08B81282F30E08B859C85FC01E20FA0
:1030D000F31F80810E9401158B818F5F8B838B8111
:1030E000883078F32FC080E70E9417141A820EC030
:1030F0008A81282F30E08B859C85FC01E20FF31F2D
:1031000080810E9401158A818F5F8A838A8188303D
:1031100078F318C088E70E94171419820EC08981BD
:10312000282F30E08B859C85FC01E20FF31F808106
:103130000E94011589818F5F89838981883078F3A6
:1031400001C0198689852E960FB6F894DEBF0FBE92
:10315000CDBFCF91DF910895DF93CF9300D000D002
:10316000CDB7DEB78A836B834C8381E089838A8104
:10317000883088F48B81813019F08B81823059F44A
:103180008C81883240F48B816C810E94E1168A81A7
:103190000E94011501C0198289810F900F900F9034
:1031A0000F90CF91DF910895DF93CF930F92CDB71A
:1031B000DEB789838981882321F480E10E94171476
:1031C00006C08981813019F484E10E9417140F90A0
:1031D000CF91DF910895DF93CF930F92CDB7DEB7F4
:1031E00089838981882321F488E10E94171406C00D
:1031F0008981813019F48CE10E9417140F90CF91CE
:10320000DF910895DF93CF9300D000D00F92CDB718
:10321000DEB79B838A837D836C8381E089838C8185
:103220009D81009769F08C819D819093D40180935A
:10323000D3018A819B819093F5018093F40101C0B1
:10324000198289810F900F900F900F900F90CF915E
:10325000DF910895DF93CF9300D000D00F92CDB7C8
:10326000DEB79B838A837D836C8381E089838C8135
:103270009D81009769F08C819D819093D601809308
:10328000D5018A819B819093F8018093F70101C059
:10329000198289810F900F900F900F900F90CF910E
:1032A000DF910895DF93CF930F92CDB7DEB7898377
:1032B000ECE5F0E0898180830F90CF91DF91089554
:1032C000DF93CF930F92CDB7DEB78983E2E5F0E0CD
:1032D0008981808389818093F6010F90CF91DF915E
:1032E0000895DF93CF9300D00F92CDB7DEB79B83C5
:1032F0008A8381E089838A819B81009739F0E2E5A6
:10330000F0E08081EA81FB81808301C0198289819C
:103310000F900F900F90CF91DF910895DF93CF938F
:103320000F92CDB7DEB781E08983A3E5B0E0E3E596
:10333000F0E0808188608C93A3E5B0E0E3E5F0E005
:10334000808180648C93A3E5B0E0E3E5F0E08081C8
:1033500080628C93A3E5B0E0E3E5F0E080818F7EAE
:103360008C93A9E5B0E0E9E5F0E080818D7F8C9356
:10337000A9E5B0E0E9E5F0E0808181608C93A3E508
:10338000B0E0E3E5F0E080818B7F8C93A3E5B0E0D3
:10339000E3E5F0E0808182608C93A3E5B0E0E3E5B3
:1033A000F0E080818E7F8C9389810F90CF91DF91A7
:1033B00008951F920F920FB60F9211242F933F93EF
:1033C0004F935F936F937F938F939F93AF93BF932D
:1033D000EF93FF93DF93CF93CDB7DEB78091D70103
:1033E0009091D80101969093D8018093D7012091B4
:1033F000D7013091D8018091F4019091F5012817FF
:103400003907A1F4E2E5F0E08091F60180831092A3
:10341000D8011092D7018091D3019091D4010097E7
:1034200029F0E091D301F091D4010995CF91DF917A
:10343000FF91EF91BF91AF919F918F917F916F918C
:103440005F914F913F912F910F900FBE0F901F9062
:1034500018951F920F920FB60F9211242F933F933E
:103460004F935F936F937F938F939F93AF93BF938C
:10347000EF93FF93DF93CF93CDB7DEB78091D90160
:103480009091DA0101969093DA018093D90120910D
:10349000D9013091DA018091F7019091F801281754
:1034A000390779F41092DA011092D9018091D5018F
:1034B0009091D601009729F0E091D501F091D601C5
:1034C0000995CF91DF91FF91EF91BF91AF919F91BE
:1034D0008F917F916F915F914F913F912F910F90BD
:1034E0000FBE0F901F901895DF93CF93CDB7DEB727
:1034F00027970FB6F894DEBF0FBECDBF6A837B83DC
:103500008C839D835F834E8381E089838E819F813D
:10351000009799F08E819F819093DC018093DB016D
:103520008A819B81AC81BD818093F9019093FA01DE
:10353000A093FB01B093FC0101C0198289812796F9
:103540000FB6F894DEBF0FBECDBFCF91DF910895C7
:10355000DF93CF93CDB7DEB727970FB6F894DEBFD2
:103560000FBECDBF6A837B838C839D835F834E8335
:1035700081E089838E819F81009799F08E819F8160
:103580009093DE018093DD018A819B81AC81BD81B6
:103590008093FF0190930002A0930102B093020276
:1035A00001C01982898127960FB6F894DEBF0FBE3D
:1035B000CDBFCF91DF910895DF93CF93CDB7DEB725
:1035C00027970FB6F894DEBF0FBECDBF6A837B830B
:1035D0008C839D835F834E8381E089838E819F816D
:1035E000009799F08E819F819093E0018093DF0195
:1035F0008A819B81AC81BD818093030290930402F8
:10360000A0930502B093060201C019828981279612
:103610000FB6F894DEBF0FBECDBFCF91DF910895F6
:10362000DF93CF9300D0CDB7DEB79A838983EAE4E6
:10363000F0E089819A81918380830F900F90CF91E0
:10364000DF910895DF93CF9300D0CDB7DEB79A8393
:103650008983E8E4F0E089819A81918380830F90E7
:103660000F90CF91DF910895DF93CF9300D0CDB726
:10367000DEB79A838983ECE4F0E089819A819183B3
:10368000808389819A819093FE018093FD010F9040
:103690000F90CF91DF910895DF93CF9300D0CDB7F6
:1036A000DEB79A838983E6E4F0E089819A81918389
:1036B00080830F900F90CF91DF910895DF93CF9388
:1036C00000D00F92CDB7DEB79B838A8381E08983D8
:1036D0008A819B81009749F0ECE4F0E08081918140
:1036E000EA81FB819183808301C0198289810F90D7
:1036F0000F900F90CF91DF910895DF93CF93CDB7C7
:10370000DEB7AEE4B0E0EEE4F0E0808180648C935C
:10371000A9E5B0E0E9E5F0E0808180628C93CF918B
:10372000DF910895DF93CF9300D00F92CDB7DEB72E
:103730009B838A8381E089838A819B81009749F0FA
:103740008091E1019091E201EA81FB819183808384
:1037500001C0198289810F900F900F90CF91DF9156
:103760000895DF93CF9300D00F92CDB7DEB79B8340
:103770008A8381E089838A819B810097A1F02091CF
:10378000E1013091E2018091E3019091E401820F27
:10379000931FCC01A0E0B0E0EA81FB81808391839C
:1037A000A283B38301C0198289810F900F900F907B
:1037B000CF91DF910895DF93CF9300D00F92CDB7D3
:1037C000DEB79B838A8381E089838A819B8100970E
:1037D00031F18091E1019091E201CC01A0E0B0E0F3
:1037E00024E630E040E050E0BC01CD010E94192AFF
:1037F000DC01CB01482F50E02091E1013091E20142
:103800008091E3019091E401280F391FCA01B901A9
:103810000E94382ACB01EA81FB81808301C0198292
:1038200089810F900F900F90CF91DF910895DF93D2
:10383000CF930F92CDB7DEB781E08983AFE4B0E0DC
:10384000EFE4F0E080818E7F8C93AFE4B0E0EFE4B2
:10385000F0E0808182608C93AEE4B0E0EEE4F0E0D2
:10386000808188608C93AEE4B0E0EEE4F0E080818B
:1038700080618C93AFE4B0E0EFE4F0E08081806899
:103880008C93AFE4B0E0EFE4F0E080818F7B8C9329
:103890001982A9E5B0E0E9E5F0E080818B7F8C93A7
:1038A000A9E5B0E0E9E5F0E08081877F8C93A9E5A8
:1038B000B0E0E9E5F0E080818F7E8C93A9E5B0E08F
:1038C000E9E5F0E080818F7D8C93AEE4B0E0EEE43A
:1038D000F0E080818B7F8C93AEE4B0E0EEE4F0E02A
:1038E000808182608C93AEE4B0E0EEE4F0E0808111
:1038F0008E7F8C9389810F90CF91DF9108951F92D5
:103900000F920FB60F9211242F933F934F935F9313
:103910006F937F938F939F93AF93BF93EF93FF9397
:10392000DF93CF93CDB7DEB78091E5019091E601AB
:10393000A091E701B091E8010196A11DB11D80930E
:10394000E5019093E601A093E701B093E80120918F
:10395000E5013091E6014091E7015091E801809145
:10396000F9019091FA01A091FB01B091FC01281797
:1039700039074A075B07D9F4ECE4F0E08091FD01D8
:103980009091FE01918380831092E5011092E601EF
:103990001092E7011092E8018091DB019091DC0127
:1039A000009729F0E091DB01F091DC010995CF91BE
:1039B000DF91FF91EF91BF91AF919F918F917F9197
:1039C0006F915F914F913F912F910F900FBE0F908C
:1039D0001F9018951F920F920FB60F9211242F93DC
:1039E0003F934F935F936F937F938F939F93AF9387
:1039F000BF93EF93FF93DF93CF93CDB7DEB7809163
:103A0000E9019091EA01A091EB01B091EC010196DE
:103A1000A11DB11D8093E9019093EA01A093EB01F0
:103A2000B093EC012091E9013091EA014091EB0162
:103A30005091EC018091FF0190910002A091010250
:103A4000B0910202281739074A075B0799F41092D0
:103A5000E9011092EA011092EB011092EC018091C1
:103A6000DD019091DE01009729F0E091DD01F091F8
:103A7000DE010995CF91DF91FF91EF91BF91AF9159
:103A80009F918F917F916F915F914F913F912F9176
:103A90000F900FBE0F901F9018951F920F920FB6A8
:103AA0000F9211242F933F934F935F936F937F93C4
:103AB0008F939F93AF93BF93EF93FF93DF93CF9336
:103AC000CDB7DEB78091ED019091EE01A091EF01AD
:103AD000B091F0010196A11DB11D8093ED0190936D
:103AE000EE01A093EF01B093F0012091ED01309130
:103AF000EE014091EF015091F0018091030290910D
:103B00000402A0910502B0910602281739074A075E
:103B10005B0799F41092ED011092EE011092EF0103
:103B20001092F0018091DF019091E001009729F05F
:103B3000E091DF01F091E0010995CF91DF91FF91D4
:103B4000EF91BF91AF919F918F917F916F915F9115
:103B50004F913F912F910F900FBE0F901F9018958E
:103B60001F920F920FB60F9211242F933F938F93B2
:103B70009F93AF93BF93EF93FF93DF93CF9300D0C7
:103B8000CDB7DEB7E6E4F0E0808191819A83898346
:103B90008091F3018823B9F42091F1013091F20171
:103BA00089819A81821B930B9093E4018093E301B6
:103BB000AEE4B0E0EEE4F0E080818F7B8C9381E0B6
:103BC0008093F30115C02091F1013091F2018981B8
:103BD0009A81821B930B9093E2018093E101AEE402
:103BE000B0E0EEE4F0E0808180648C931092F30109
:103BF00089819A819093F2018093F1010F900F9047
:103C0000CF91DF91FF91EF91BF91AF919F918F91F4
:103C10003F912F910F900FBE0F901F901895DF933B
:103C2000CF93CDB7DEB7C055D1400FB6F894DEBF05
:103C30000FBECDBF9E01225D3F4FC55FDE4F398372
:103C40002883CB50D14080E690E0C35FDE4F99835C
:103C50008883CD50D14090E1C15FDE4F9883CF5033
:103C6000D140C35FDE4FE881F981CD50D140008063
:103C7000C35FDE4F28813981CD50D1402F5F3F4F48
:103C8000C35FDE4F39832883CD50D140C55FDE4FFF
:103C9000E881F981CB50D1400082C55FDE4F288199
:103CA0003981CB50D1402F5F3F4FC55FDE4F398305
:103CB0002883CB50D140C15FDE4F3881CF50D140F7
:103CC0003150C15FDE4F3883CF50D140C15FDE4FEE
:103CD0008881CF50D140882321F6FE01FE96C05F37
:103CE000DE4FF983E883C051D14020E730E0CE5E5B
:103CF000DE4F39832883C251D14030E1CC5EDE4FA4
:103D00003883C451D140CE5EDE4FE881F981C25183
:103D1000D1400080CE5EDE4F28813981C251D14032
:103D20002F5F3F4FCE5EDE4F39832883C251D14093
:103D3000C05FDE4FE881F981C051D1400082C05F91
:103D4000DE4F28813981C051D1402F5F3F4FC05F86
:103D5000DE4F39832883C051D140CC5EDE4F38819D
:103D6000C451D1403150CC5EDE4F3883C451D14074
:103D7000CC5EDE4F8881C451D140882321F6CE012C
:103D8000825B9F4FCB5EDE4F99838883C551D140C4
:103D9000E0E8F0E0C95EDE4FF983E883C751D14027
:103DA000FFE0C75EDE4FF883C951D140C95EDE4FE8
:103DB000E881F981C751D1400080C95EDE4F28817A
:103DC0003981C751D1402F5F3F4FC95EDE4F3983E4
:103DD0002883C751D140CB5EDE4FE881F981C551C0
:103DE000D1400082CB5EDE4F28813981C551D14060
:103DF0002F5F3F4FCB5EDE4F39832883C551D140C3
:103E0000C75EDE4F3881C951D1403150C75EDE4FA9
:103E10003883C951D140C75EDE4F8881C951D14036
:103E2000882321F6CE01835A9F4FC65EDE4F9983C9
:103E30008883CA51D140EFE8F0E0C45EDE4FF983D9
:103E4000E883CC51D140F1E1C25EDE4FF883CE5120
:103E5000D140C45EDE4FE881F981CC51D140008071
:103E6000C45EDE4F28813981CC51D1402F5F3F4F56
:103E7000C45EDE4F39832883CC51D140C65EDE4F0D
:103E8000E881F981CA51D1400082C65EDE4F2881A7
:103E90003981CA51D1402F5F3F4FC65EDE4F398313
:103EA0002883CA51D140C25EDE4F3881CE51D14005
:103EB0003150C25EDE4F3883CE51D140C25EDE4FFC
:103EC0008881CE51D140882321F6CE0182599F4F5F
:103ED000C15EDE4F99838883CF51D140E0EAF0E0A4
:103EE000CF5DDE4FF983E883C152D140FFE0CD5D65
:103EF000DE4FF883C352D140CF5DDE4FE881F981B8
:103F0000C152D1400080CF5DDE4F28813981C1523E
:103F1000D1402F5F3F4FCF5DDE4F39832883C152A1
:103F2000D140C15EDE4FE881F981CF51D14000829E
:103F3000C15EDE4F28813981CF51D1402F5F3F4F85
:103F4000C15EDE4F39832883CF51D140CD5DDE4F36
:103F50003881C352D1403150CD5DDE4F3883C352DA
:103F6000D140CD5DDE4F8881C352D140882321F6F8
:103F7000CE0183589F4FCC5DDE4F99838883C45216
:103F8000D140EFEAF0E0CA5DDE4FF983E883C65224
:103F9000D140F1E1C85DDE4FF883C852D140CA5D1F
:103FA000DE4FE881F981C652D1400080CA5DDE4F04
:103FB00028813981C652D1402F5F3F4FCA5DDE4F05
:103FC00039832883C652D140CC5DDE4FE881F98128
:103FD000C452D1400082CC5DDE4F28813981C45269
:103FE000D1402F5F3F4FCC5DDE4F39832883C452D1
:103FF000D140C85DDE4F3881C852D1403150C85DD4
:10400000DE4F3883C852D140C85DDE4F8881C85228
:10401000D140882321F6CE0182579F4FC75DDE4FE6
:1040200099838883C952D140E0ECF0E0C55DDE4F52
:10403000F983E883CB52D140F1E1C35DDE4FF883D1
:10404000CD52D140C55DDE4FE881F981CB52D140E0
:104050000080C55DDE4F28813981CB52D1402F5F72
:104060003F4FC55DDE4F39832883CB52D140C75DBA
:10407000DE4FE881F981C952D1400082C75DDE4F31
:1040800028813981C952D1402F5F3F4FC75DDE4F34
:1040900039832883C952D140C35DDE4F3881CD5268
:1040A000D1403150C35DDE4F3883CD52D140C35D26
:1040B000DE4F8881CD52D140882321F6CE01815632
:1040C0009F4FC25DDE4F99838883CE52D140E1ED90
:1040D000F0E0C05DDE4FF983E883C053D140F0E1EA
:1040E000CE5CDE4FF883C253D140C05DDE4FE88125
:1040F000F981C053D1400080C05DDE4F28813981F5
:10410000C053D1402F5F3F4FC05DDE4F39832883BE
:10411000C053D140C25DDE4FE881F981CE52D1401B
:104120000082C25DDE4F28813981CE52D1402F5F9F
:104130003F4FC25DDE4F39832883CE52D140CE5CE3
:10414000DE4F3881C253D1403150CE5CDE4F3883D0
:10415000C253D140CE5CDE4F8881C253D140882308
:1041600021F6CE0181559F4FCD5CDE4F9983888328
:10417000C353D140E1EEF0E0CB5CDE4FF983E8833E
:10418000C553D140F2E1C95CDE4FF883C753D1403B
:10419000CB5CDE4FE881F981C553D1400080CB5C18
:1041A000DE4F28813981C553D1402F5F3F4FCB5C13
:1041B000DE4F39832883C553D140CD5CDE4FE88183
:1041C000F981C353D1400082CD5CDE4F2881398113
:1041D000C353D1402F5F3F4FCD5CDE4F39832883DF
:1041E000C353D140C95CDE4F3881C753D1403150F1
:1041F000C95CDE4F3883C753D140C95CDE4F88812C
:10420000C753D140882321F6CE018F539F4FC85CFE
:10421000DE4F99838883C853D140E3EFF0E0C65C5A
:10422000DE4FF983E883CA53D140F1E1C45CDE4F2D
:10423000F883CC53D140C65CDE4FE881F981CA5384
:10424000D1400080C65CDE4F28813981CA53D140FD
:104250002F5F3F4FC65CDE4F39832883CA53D1405E
:10426000C85CDE4FE881F981C853D1400082C85C48
:10427000DE4F28813981C853D1402F5F3F4FC85C42
:10428000DE4F39832883C853D140C45CDE4F388168
:10429000CC53D1403150C45CDE4F3883CC53D14035
:1042A000C45CDE4F8881CC53D140882321F6CE01F7
:1042B0008E529F4FC35CDE4F99838883CD53D1408C
:1042C000E4E0F1E0C15CDE4FF983E883CF53D140F5
:1042D000F8E0CF5BDE4FF883C154D140C15CDE4FC4
:1042E000E881F981CF53D1400080C15CDE4F288145
:1042F0003981CF53D1402F5F3F4FC15CDE4F3983AF
:104300002883CF53D140C35CDE4FE881F981CD5380
:10431000D1400082C35CDE4F28813981CD53D1402A
:104320002F5F3F4FC35CDE4F39832883CD53D1408D
:10433000CF5BDE4F3881C154D1403150CF5BDE4F6F
:104340003883C154D140CF5BDE4F8881C154D14006
:10435000882321F6CE0186529F4FCE5BDE4F998394
:104360008883C254D140ECE0F1E0CC5BDE4FF983AE
:10437000E883C454D140F9E0CA5BDE4FF883C654E9
:10438000D140CC5BDE4FE881F981C454D14000803C
:10439000CC5BDE4F28813981C454D1402F5F3F4F21
:1043A000CC5BDE4F39832883C454D140CE5BDE4FD3
:1043B000E881F981C254D1400082CE5BDE4F288172
:1043C0003981C254D1402F5F3F4FCE5BDE4F3983DE
:1043D0002883C254D140CA5BDE4F3881C654D140D5
:1043E0003150CA5BDE4F3883C654D140CA5BDE4FC2
:1043F0008881C654D140882321F6FE01ED51FF4F3C
:104400008FEF80831DA61CA61BA60E9493080E9406
:10441000E6100E94900F0E944F060E948E192FE016
:104420003AE280E0B9010E94310D80E062E00E9432
:10443000590DCE018E960E94EB1582E060E00E943D
:10444000E116CE01CE960E94EB1505C0CE018D512E
:104450009F4F0E94AC0FFE01ED51FF4F80818534CC
:10446000A9F7FE01ED51FF4F8081853409F026C187
:1044700021C10E9415171DA681E060E00E94E1168F
:10448000CE01825B9F4F0E94EB15FE01ED51FF4F65
:104490008FEF808382E065E00E94E11624C0CE01A8
:1044A0008D519F4F0E94AC0FFE01ED51FF4F808157
:1044B0008F3FC9F08DA5282F30E0FE01ED51FF4F51
:1044C0004081CE018C519F4FFC01E20FF31F4083CE
:1044D0008AE20E9401158DA58F5F8DA7FE01ED5127
:1044E000FF4F8FEF80838DA58430C8F21DA61BC0BF
:1044F0008DA5882F90E0FC01EB55FE4F40818DA5E6
:10450000282F30E0CE018C519F4FFC01E20FF31FAA
:104510008081481731F481E08CA78DA58F5F8DA72E
:1045200002C01CA603C08DA5843010F38CA5813079
:1045300041F40E941517CE01835A9F4F0E94EB153C
:10454000BDC08BA58F5F8BA70E94151781E060E02F
:104550000E94E116CE0182599F4F0E94EB1582E026
:1045600060E00E94E1168BA5E82FF0E0C75FDE4F08
:10457000F983E883C950D140C75FDE4F2881398174
:10458000C950D14022303105C1F0C75FDE4F88816C
:104590009981C950D14083309105A9F0C75FDE4FA2
:1045A000E881F981C950D140E130F10589F4CE01AB
:1045B00083589F4F0E94EB150BC0CE0182579F4F2F
:1045C0000E94EB1505C0CE0181569F4F0E94EB154E
:1045D00080E090E0AAEFB4E48FA398A7A9A7BAA7B8
:1045E0006FA178A589A59AA520E030E04AEF54E4B0
:1045F0000E941F02DC01CB018BA39CA3ADA3BEA331
:104600006BA17CA18DA19EA120E030E040E85FE39A
:104610000E94250488232CF481E090E09AA389A3CA
:104620003FC06BA17CA18DA19EA120E03FEF4FE791
:1046300057E40E94C50318164CF56FA178A589A50B
:104640009AA520E030E040E251E40E941F02DC0124
:10465000CB01BC01CD010E944900DC01CB019AA332
:1046600089A30FC088EC90E098A38F8F8F8D98A1BD
:104670000197F1F798A38F8F89A19AA101979AA327
:1046800089A389A19AA1009769F714C06BA17CA1A5
:104690008DA19EA10E944900DC01CB019AA389A3B0
:1046A00089A19AA19E8F8D8F8D8D9E8D0197F1F797
:1046B0009E8F8D8F8BA5833008F4DBCE8CA5813047
:1046C00009F02DC1FE01ED51FF4F8FEF80830E9455
:1046D0001517CE0181559F4F0E94EB1580E090E0A9
:1046E000AAEFB3E4898F9A8FAB8FBC8F698D7A8DD7
:1046F0008B8D9C8D20E030E04AEF54E40E941F0235
:10470000DC01CB018D8B9E8BAF8BB88F6D897E8941
:104710008F89988D20E030E040E85FE30E94250417
:1047200088232CF481E090E09C8B8B8B3FC06D89BB
:104730007E898F89988D20E03FEF4FE757E40E94F4
:10474000C50318164CF5698D7A8D8B8D9C8D20E0F4
:1047500030E040E251E40E941F02DC01CB01BC01C9
:10476000CD010E944900DC01CB019C8B8B8B0FC0DB
:1047700088EC90E09A8B898B89899A890197F1F767
:104780009A8B898B8B899C8901979C8B8B8B8B89CE
:104790009C89009769F714C06D897E898F89988DEF
:1047A0000E944900DC01CB019C8B8B8B8B899C89FF
:1047B000988B8F878F8598890197F1F7988B8F87D2
:1047C00080E00E94EB1880E090E0AAEFB3E48B87D2
:1047D0009C87AD87BE876B857C858D859E8520E017
:1047E00030E04AEF54E40E941F02DC01CB018F83CA
:1047F0009887A987BA876F81788589859A8520E00F
:1048000030E040E85FE30E94250488232CF481E037
:1048100090E09E838D833FC06F81788589859A85DE
:1048200020E03FEF4FE757E40E94C50318164CF510
:104830006B857C858D859E8520E030E040E251E4EB
:104840000E941F02DC01CB01BC01CD010E94490086
:10485000DC01CB019E838D830FC088EC90E09C83AC
:104860008B838B819C810197F1F79C838B838D8156
:104870009E8101979E838D838D819E81009769F72C
:1048800014C06F81788589859A850E944900DC0172
:10489000CB019E838D838D819E819A8389838981BB
:1048A0009A810197F1F79A8389830E941517CE01A7
:1048B0008F539F4F0E94EB1582E060E00E94E1164B
:1048C000CE018E529F4F0E94EB1582E068E00E945D
:1048D000E116CE0186529F4F0E94EB1505C0CE0116
:1048E0008D519F4F0E94AC0FFE01ED51FF4F808113
:1048F0008F3FA9F3FE01ED51FF4F8081813321F4F9
:1049000081E380930702C5C0FE01ED51FF4F808116
:10491000823309F0BEC082E380930702BAC08CA53F
:10492000882309F0B6C00E941517CE0188519F4F09
:10493000C95BDE4F99838883C754D14025E131E0BC
:10494000C75BDE4F39832883C954D14030E1C55B52
:10495000DE4F3883CB54D140C75BDE4FE881F9810D
:10496000C954D1400080C75BDE4F28813981C954CA
:10497000D1402F5F3F4FC75BDE4F39832883C95437
:10498000D140C95BDE4FE881F981C754D140008234
:10499000C95BDE4F28813981C754D1402F5F3F4F1B
:1049A000C95BDE4F39832883C754D140C55BDE4FD6
:1049B0003881CB54D1403150C55BDE4F3883CB5466
:1049C000D140C55BDE4F8881CB54D140882321F68E
:1049D000CE0188509F4FC45BDE4F99838883CC54AF
:1049E000D140E5E2F1E0C25BDE4FF983E883CE54CB
:1049F000D140F1E1C05BDE4FF883C055D140C25BCE
:104A0000DE4FE881F981CE54D1400080C25BDE4F99
:104A100028813981CE54D1402F5F3F4FC25BDE4F9A
:104A200039832883CE54D140C45BDE4FE881F981BD
:104A3000CC54D1400082C45BDE4F28813981CC54F4
:104A4000D1402F5F3F4FC45BDE4F39832883CC5466
:104A5000D140C05BDE4F3881C055D1403150C05B82
:104A6000DE4F3883C055D140C05BDE4F8881C055D2
:104A7000D140882321F6CE0188519F4F0E94EB152B
:104A800082E060E00E94E116CE0188509F4F0E94B4
:104A9000EB1580910702813331F420EA35E280E0A2
:104AA000B9010E94040780910702823331F424EB9C
:104AB00037E281E0B9010E94040780910702803348
:104AC00041F7FE01ED51FF4F8FEF80830E941517D4
:104AD000CE018F539F4F0E94EB1582E060E00E9451
:104AE000E116CE018E529F4F0E94EB1582E068E0E6
:104AF0000E94E116CE0186529F4F0E94EB1505C021
:104B0000CE018D519F4F0E94AC0FFE01ED51FF4F22
:104B100080818F3FA9F3FE01ED51FF4F80818133EA
:104B200021F481E380930702B4CFFE01ED51FF4FE2
:104B30008081823309F0ADCF82E380930702A9CF51
:104B4000DF93CF93CDB7DEB7C754D0400FB6F894FC
:104B5000DEBF0FBECDBF9BAB8AABCE0143969DABF4
:104B60008CABE6E3F1E0FFABEEABF8E0F8AFEEA91B
:104B7000FFA900808EA99FA901969FAB8EABECA9DF
:104B8000FDA900828CA99DA901969DAB8CAB98AD27
:104B9000915098AFE8ADEE2351F7CE014B969AAF06
:104BA00089AFEEE3F1E0FCAFEBAFF5E0FDAFEBADCD
:104BB000FCAD00808BAD9CAD01969CAF8BAFE9AD99
:104BC000FAAD008289AD9AAD01969AAF89AF9DADDD
:104BD00091509DAFEDADEE2351F7CE0180969FAF82
:104BE0008EAFE3E4F1E02296FFAFEEAF2297F6E05E
:104BF0002396FFAF23972296EEADFFAD229700805C
:104C000022968EAD9FAD2297019622969FAF8EAFD2
:104C10002297EEADFFAD00828EAD9FAD01969FAFA6
:104C20008EAF23969FAD2397915023969FAF2397E6
:104C30002396EFAD2397EE23F1F6CE0186962596C7
:104C40009FAF8EAF2597E9E4F1E02796FFAFEEAF77
:104C50002797FCE02896FFAF28972796EEADFFAD8B
:104C60002797008027968EAD9FAD279701962796B0
:104C70009FAF8EAF27972596EEADFFAD25970082AB
:104C800025968EAD9FAD2597019625969FAF8EAF49
:104C9000259728969FAD2897915028969FAF2897E3
:104CA0002896EFAD2897EE23C1F68AA99BA9CC01DF
:104CB000A0E0B0E028E833E140E050E0BC01CD01E5
:104CC0000E94192ADC01CB01072E7AE0B695A79540
:104CD000979587957A95D1F7702D9A8B898B8989CD
:104CE0009A892AE030E0B9010E94382ACB01988BDA
:104CF0008F870E94151781E060E00E94E116CE01C7
:104D000043960E94EB158F859889CC01A0E0B0E016
:104D1000BC01CD010E9414168F8598898A319105B6
:104D200008F455C081E06CE00E94E116CE014B967C
:104D30000E94EB1580E067E041E00E94A60980E058
:104D400064E040E00E94A60982E060E00E94E11673
:104D5000CE0186960E94EB158F8598898A31910540
:104D600090F08F8598898E31910568F485E60E94D0
:104D7000521968E270E080E090E00E94141685E22B
:104D80000E94011573C08F8598898E31910590F02E
:104D90008F8598898832910568F48FE70E945219AF
:104DA00062E370E080E090E00E94141685E20E94C9
:104DB00001155CC088E90E9452196CE370E080E044
:104DC00090E00E94141685E20E9401154FC081E018
:104DD0006CE00E94E116CE0180960E94EB1580E007
:104DE00067E040E00E94A60980E064E041E00E94A4
:104DF000A60982E060E00E94E116CE0186960E943C
:104E0000EB158F8598898A30910568F488E10E94B6
:104E100052196AE070E080E090E00E94141685E28A
:104E20000E94011523C08F8598898A30910590F0E2
:104E30008F8598898431910568F482E30E94521924
:104E400064E170E080E090E00E94141685E20E9428
:104E500001150CC08BE40E9452196EE170E080E0F5
:104E600090E00E94141685E20E94011580E090E017
:104E7000AAE7B4E48B879C87AD87BE876B857C856A
:104E80008D859E8520E030E04AEF54E40E941F02A9
:104E9000DC01CB018F839887A987BA876F817885DA
:104EA00089859A8520E030E040E85FE30E94250490
:104EB00088232CF481E090E09E838D833FC06F8136
:104EC000788589859A8520E03FEF4FE757E40E9477
:104ED000C50318164CF56B857C858D859E8520E075
:104EE00030E040E251E40E941F02DC01CB01BC0132
:104EF000CD010E944900DC01CB019E838D830FC050
:104F000088EC90E09C838B838B819C810197F1F7E7
:104F10009C838B838D819E8101979E838D838D8160
:104F20009E81009769F714C06F81788589859A857D
:104F30000E944900DC01CB019E838D838D819E817F
:104F40009A83898389819A810197F1F79A8389836A
:104F50000E941517C95BDF4F0FB6F894DEBF0FBE76
:104F6000CDBFCF91DF910895DF93CF93CDB7DEB75B
:104F7000C357D0400FB6F894DEBF0FBECDBFFE01C1
:104F8000E75AFF4F91838083CE0141966D969FAF84
:104F90008EAF6D97E5E5F1E06F96FFAFEEAF6F97DF
:104FA000F8E0A096FFAFA0976F96EEADFFAD6F97BC
:104FB00000806F968EAD9FAD6F9701966F969FAFF5
:104FC0008EAF6F976D96EEADFFAD6D9700826D96CB
:104FD0008EAD9FAD6D9701966D969FAF8EAF6D971D
:104FE000A0969FADA0979150A0969FAFA097A09636
:104FF000EFADA097EE23C1F6CE014996A2969FAFE2
:105000008EAFA297EDE5F1E0A496FFAFEEAFA497C7
:10501000F1E1A596FFAFA597A496EEADFFADA497DD
:105020000080A4968EAD9FADA4970196A4969FAFE5
:105030008EAFA497A296EEADFFADA2970082A29686
:105040008EAD9FADA2970196A2969FAF8EAFA2970D
:10505000A5969FADA5979150A5969FAFA597A596AC
:10506000EFADA597EE23C1F6CE018A96A7969FAF26
:105070008EAFA797EEE6F1E0A996FFAFEEAFA99746
:10508000FFE0AA96FFAFAA97A996EEADFFADA9974C
:105090000080A9968EAD9FADA9970196A9969FAF66
:1050A0008EAFA997A796EEADFFADA7970082A79602
:1050B0008EAD9FADA7970196A7969FAF8EAFA7978E
:1050C000AA969FADAA979150AA969FAFAA97AA9623
:1050D000EFADAA97EE23C1F6CE01C996AC969FAF6D
:1050E0008EAFAC97EDE7F1E0AE96FFAFEEAFAE97C7
:1050F000FFE0AF96FFAFAF97AE96EEADFFADAE97C8
:105100000080AE968EAD9FADAE970196AE969FAFE6
:105110008EAFAE97AC96EEADFFADAC970082AC967D
:105120008EAD9FADAC970196AC969FAF8EAFAC970E
:10513000AF969FADAF979150AF969FAFAF97AF9699
:10514000EFADAF97EE23C1F6CE01885B9F4FE1969E
:105150009FAF8EAFE1978CE891E0E3969FAF8EAF63
:10516000E39791E1E4969FAFE497E396EEADFFAD50
:10517000E3970080E3968EAD9FADE3970196E396AB
:105180009FAF8EAFE397E196EEADFFADE197008262
:10519000E1968EAD9FADE1970196E1969FAF8EAF00
:1051A000E197E4969FADE4979150E4969FAFE49722
:1051B000E496EFADE497EE23C1F6FE01E75AFF4F08
:1051C00080819181CC01A0E0B0E028E833E140E0AB
:1051D00050E0BC01CD010E94192ADC01CB01072E51
:1051E0007AE0B695A795979587957A95D1F7702D22
:1051F000988B8F870E941517CE0141960E94EB1560
:105200008F859889CC01A0E0B0E0BC01CD010E945F
:1052100014168F8598890097F1F08F859889F5E0AD
:105220008D3D9F07C0F482E060E00E94E116CE0150
:1052300049960E94EB1580E067E040E00E94A609D5
:1052400080E066E040E00E94A60980E065E040E082
:105250000E94A60966C08F85988925E08D3D92073A
:10526000F0F08F859889EBE0893B9E07C0F482E0DF
:1052700060E00E94E116CE018A960E94EB1580E064
:1052800067E041E00E94A60980E066E040E00E94FD
:10529000A60980E065E040E00E94A60942C08F8533
:1052A0009889FBE0893B9F07F0F08F8598892FE074
:1052B000813A9207C0F482E060E00E94E116CE01DC
:1052C000C9960E94EB1580E067E041E00E94A609C4
:1052D00080E066E041E00E94A60980E065E040E0F1
:1052E0000E94A6091EC08F859889EFE0813A9E072B
:1052F000C0F082E060E00E94E116CE01885B9F4F23
:105300000E94EB1580E067E041E00E94A60980E082
:1053100066E041E00E94A60980E065E041E00E946D
:10532000A60980E090E0AAE7B4E48B879C87AD876C
:10533000BE876B857C858D859E8520E030E04AEFB9
:1053400054E40E941F02DC01CB018F839887A98758
:10535000BA876F81788589859A8520E030E040E8BA
:105360005FE30E94250488232CF481E090E09E8373
:105370008D833FC06F81788589859A8520E03FEFD6
:105380004FE757E40E94C50318164CF56B857C85E2
:105390008D859E8520E030E040E251E40E941F02AE
:1053A000DC01CB01BC01CD010E944900DC01CB0135
:1053B0009E838D830FC088EC90E09C838B838B81D0
:1053C0009C810197F1F79C838B838D819E8101974E
:1053D0009E838D838D819E81009769F714C06F81B4
:1053E000788589859A850E944900DC01CB019E83DE
:1053F0008D838D819E819A83898389819A8101978A
:10540000F1F79A8389830E941517CD58DF4F0FB6A5
:10541000F894DEBF0FBECDBFCF91DF910895DF932B
:10542000CF93CDB7DEB780E380930702CF91DF91B2
:105430000895629FD001739FF001829FE00DF11DDE
:10544000649FE00DF11D929FF00D839FF00D749FFE
:10545000F00D659FF00D9927729FB00DE11DF91FAA
:10546000639FB00DE11DF91FBD01CF011124089507
:10547000AA1BBB1B51E107C0AA1FBB1FA617B7077A
:1054800010F0A61BB70B881F991F5A95A9F7809596
:105490009095BC01CD010895A1E21A2EAA1BBB1B59
:1054A000FD010DC0AA1FBB1FEE1FFF1FA217B307F0
:1054B000E407F50720F0A21BB30BE40BF50B661F06
:1054C000771F881F991F1A9469F7609570958095CA
:1054D00090959B01AC01BD01CF0108952F923F92A1
:1054E0004F925F926F927F928F929F92AF92BF92F4
:1054F000CF92DF92EF92FF920F931F93CF93DF93A0
:10550000CDB7DEB7CA1BDB0B0FB6F894DEBF0FBEFC
:10551000CDBF09942A88398848885F846E847D8449
:105520008C849B84AA84B984C884DF80EE80FD804B
:105530000C811B81AA81B981CE0FD11D0FB6F894C1
:0E554000DEBF0FBECDBFED010895F894FFCF82
:10554E002E2E2E2E57656C636F6D652E2E2E2E0011
:10555E006C6F67696E2D3E50726573732845290016
:10556E00456E7465722050617373776F7264004379
:10557E006F72726563742050617373776F7264001B
:10558E0057726F6E672050617373776F7264005439
:10559E007261696C312E54727920616761696E0097
:1055AE00547261696C322E54727920616761696E32
:1055BE000054727920616761696E206C6174657246
:1055CE000057656C636F6D6520746F20737973740B
:1055DE00656D0043686F6F736520536572766963FE
:1055EE00652E2E0028312954656D70002832294C05
:1055FE0069676874002E2E2E5468616E6B20596F89
:10560E00752E2E2E00526573746172742E5472793B
:10561E00416761696E004465677265653D00484F7C
:10562E00542100436F6C64210044757479204379D2
:10563E00636C653D00416E616C6F673D004E6F207F
:10564E006C6967687473206E6565646564004D658A
:10565E006469756D2D4C454431204F4E0044617286
:10566E006B65722D4C454432204F4E0049742773A2
:10567E004461726B2D4C454473204F4E0000000068
:10568E000000000000313233343132332B343536E2
:10569E002D3738392A304542250303030300010311
:0A56AE0004010101010405060700D4
:00000001FF
